{
  "_format": "hh-sol-artifact-1",
  "contractName": "VIEWStaking",
  "sourceName": "contracts/VIEWStaking.sol",
  "abi": [
    {
      "inputs": [
        {
          "internalType": "address",
          "name": "_token",
          "type": "address"
        }
      ],
      "stateMutability": "nonpayable",
      "type": "constructor"
    },
    {
      "inputs": [],
      "name": "EnforcedPause",
      "type": "error"
    },
    {
      "inputs": [],
      "name": "ExpectedPause",
      "type": "error"
    },
    {
      "inputs": [
        {
          "internalType": "address",
          "name": "owner",
          "type": "address"
        }
      ],
      "name": "OwnableInvalidOwner",
      "type": "error"
    },
    {
      "inputs": [
        {
          "internalType": "address",
          "name": "account",
          "type": "address"
        }
      ],
      "name": "OwnableUnauthorizedAccount",
      "type": "error"
    },
    {
      "inputs": [],
      "name": "ReentrancyGuardReentrantCall",
      "type": "error"
    },
    {
      "inputs": [
        {
          "internalType": "address",
          "name": "token",
          "type": "address"
        }
      ],
      "name": "SafeERC20FailedOperation",
      "type": "error"
    },
    {
      "anonymous": false,
      "inputs": [
        {
          "indexed": true,
          "internalType": "address",
          "name": "previousOwner",
          "type": "address"
        },
        {
          "indexed": true,
          "internalType": "address",
          "name": "newOwner",
          "type": "address"
        }
      ],
      "name": "OwnershipTransferred",
      "type": "event"
    },
    {
      "anonymous": false,
      "inputs": [
        {
          "indexed": false,
          "internalType": "address",
          "name": "account",
          "type": "address"
        }
      ],
      "name": "Paused",
      "type": "event"
    },
    {
      "anonymous": false,
      "inputs": [
        {
          "indexed": true,
          "internalType": "address",
          "name": "user",
          "type": "address"
        },
        {
          "indexed": false,
          "internalType": "uint256",
          "name": "amount",
          "type": "uint256"
        },
        {
          "indexed": false,
          "internalType": "uint256",
          "name": "totalStaked",
          "type": "uint256"
        }
      ],
      "name": "Staked",
      "type": "event"
    },
    {
      "anonymous": false,
      "inputs": [
        {
          "indexed": false,
          "internalType": "address",
          "name": "account",
          "type": "address"
        }
      ],
      "name": "Unpaused",
      "type": "event"
    },
    {
      "anonymous": false,
      "inputs": [
        {
          "indexed": false,
          "internalType": "uint256",
          "name": "newCooldown",
          "type": "uint256"
        }
      ],
      "name": "UnstakeCooldownUpdated",
      "type": "event"
    },
    {
      "anonymous": false,
      "inputs": [
        {
          "indexed": true,
          "internalType": "address",
          "name": "user",
          "type": "address"
        },
        {
          "indexed": false,
          "internalType": "uint256",
          "name": "amount",
          "type": "uint256"
        },
        {
          "indexed": false,
          "internalType": "uint256",
          "name": "remaining",
          "type": "uint256"
        }
      ],
      "name": "Unstaked",
      "type": "event"
    },
    {
      "inputs": [],
      "name": "TIER_BRONZE",
      "outputs": [
        {
          "internalType": "uint256",
          "name": "",
          "type": "uint256"
        }
      ],
      "stateMutability": "view",
      "type": "function"
    },
    {
      "inputs": [],
      "name": "TIER_GOLD",
      "outputs": [
        {
          "internalType": "uint256",
          "name": "",
          "type": "uint256"
        }
      ],
      "stateMutability": "view",
      "type": "function"
    },
    {
      "inputs": [],
      "name": "TIER_PLATINUM",
      "outputs": [
        {
          "internalType": "uint256",
          "name": "",
          "type": "uint256"
        }
      ],
      "stateMutability": "view",
      "type": "function"
    },
    {
      "inputs": [],
      "name": "TIER_SILVER",
      "outputs": [
        {
          "internalType": "uint256",
          "name": "",
          "type": "uint256"
        }
      ],
      "stateMutability": "view",
      "type": "function"
    },
    {
      "inputs": [
        {
          "internalType": "address",
          "name": "user",
          "type": "address"
        }
      ],
      "name": "canUnstake",
      "outputs": [
        {
          "internalType": "bool",
          "name": "",
          "type": "bool"
        }
      ],
      "stateMutability": "view",
      "type": "function"
    },
    {
      "inputs": [],
      "name": "emergencyWithdraw",
      "outputs": [],
      "stateMutability": "nonpayable",
      "type": "function"
    },
    {
      "inputs": [
        {
          "internalType": "address",
          "name": "user",
          "type": "address"
        }
      ],
      "name": "getStakedBalance",
      "outputs": [
        {
          "internalType": "uint256",
          "name": "",
          "type": "uint256"
        }
      ],
      "stateMutability": "view",
      "type": "function"
    },
    {
      "inputs": [
        {
          "internalType": "address",
          "name": "user",
          "type": "address"
        }
      ],
      "name": "getTier",
      "outputs": [
        {
          "internalType": "uint8",
          "name": "",
          "type": "uint8"
        }
      ],
      "stateMutability": "view",
      "type": "function"
    },
    {
      "inputs": [
        {
          "internalType": "address",
          "name": "user",
          "type": "address"
        }
      ],
      "name": "getTierMultiplier",
      "outputs": [
        {
          "internalType": "uint256",
          "name": "",
          "type": "uint256"
        }
      ],
      "stateMutability": "view",
      "type": "function"
    },
    {
      "inputs": [],
      "name": "owner",
      "outputs": [
        {
          "internalType": "address",
          "name": "",
          "type": "address"
        }
      ],
      "stateMutability": "view",
      "type": "function"
    },
    {
      "inputs": [],
      "name": "pause",
      "outputs": [],
      "stateMutability": "nonpayable",
      "type": "function"
    },
    {
      "inputs": [],
      "name": "paused",
      "outputs": [
        {
          "internalType": "bool",
          "name": "",
          "type": "bool"
        }
      ],
      "stateMutability": "view",
      "type": "function"
    },
    {
      "inputs": [],
      "name": "renounceOwnership",
      "outputs": [],
      "stateMutability": "nonpayable",
      "type": "function"
    },
    {
      "inputs": [
        {
          "internalType": "uint256",
          "name": "_cooldown",
          "type": "uint256"
        }
      ],
      "name": "setUnstakeCooldown",
      "outputs": [],
      "stateMutability": "nonpayable",
      "type": "function"
    },
    {
      "inputs": [
        {
          "internalType": "uint256",
          "name": "amount",
          "type": "uint256"
        }
      ],
      "name": "stake",
      "outputs": [],
      "stateMutability": "nonpayable",
      "type": "function"
    },
    {
      "inputs": [
        {
          "internalType": "address",
          "name": "",
          "type": "address"
        }
      ],
      "name": "stakes",
      "outputs": [
        {
          "internalType": "uint256",
          "name": "amount",
          "type": "uint256"
        },
        {
          "internalType": "uint256",
          "name": "stakedAt",
          "type": "uint256"
        },
        {
          "internalType": "uint256",
          "name": "lastUnstakeRequest",
          "type": "uint256"
        }
      ],
      "stateMutability": "view",
      "type": "function"
    },
    {
      "inputs": [],
      "name": "totalStaked",
      "outputs": [
        {
          "internalType": "uint256",
          "name": "",
          "type": "uint256"
        }
      ],
      "stateMutability": "view",
      "type": "function"
    },
    {
      "inputs": [
        {
          "internalType": "address",
          "name": "newOwner",
          "type": "address"
        }
      ],
      "name": "transferOwnership",
      "outputs": [],
      "stateMutability": "nonpayable",
      "type": "function"
    },
    {
      "inputs": [],
      "name": "unpause",
      "outputs": [],
      "stateMutability": "nonpayable",
      "type": "function"
    },
    {
      "inputs": [
        {
          "internalType": "uint256",
          "name": "amount",
          "type": "uint256"
        }
      ],
      "name": "unstake",
      "outputs": [],
      "stateMutability": "nonpayable",
      "type": "function"
    },
    {
      "inputs": [],
      "name": "unstakeCooldown",
      "outputs": [
        {
          "internalType": "uint256",
          "name": "",
          "type": "uint256"
        }
      ],
      "stateMutability": "view",
      "type": "function"
    },
    {
      "inputs": [],
      "name": "viewToken",
      "outputs": [
        {
          "internalType": "contract IERC20",
          "name": "",
          "type": "address"
        }
      ],
      "stateMutability": "view",
      "type": "function"
    }
  ],
  "bytecode": "0x60a0604052600060055534801561001557600080fd5b50604051610e4a380380610e4a83398101604081905261003491610120565b338061005b57604051631e4fbdf760e01b8152600060048201526024015b60405180910390fd5b610064816100d0565b50600180556001600160a01b0381166100bf5760405162461bcd60e51b815260206004820152601560248201527f496e76616c696420746f6b656e206164647265737300000000000000000000006044820152606401610052565b6001600160a01b0316608052610150565b600080546001600160a01b038381166001600160a01b0319831681178455604051919092169283917f8be0079c531659141344cd1fd0a4f28419497f9722a3daafe3b4186f6b6457e09190a35050565b60006020828403121561013257600080fd5b81516001600160a01b038116811461014957600080fd5b9392505050565b608051610cc36101876000396000818161028b0152818161049c015281816106a1015281816107fa01526108f20152610cc36000f3fe608060405234801561001057600080fd5b50600436106101425760003560e01c806385f4498b116100b8578063a694fc3a1161007c578063a694fc3a146102c0578063b45aae52146102d3578063d86b56f7146102f8578063db2e21bc14610309578063e3d3f84314610311578063f2fde38b1461032257600080fd5b806385f4498b1461023e5780638da5cb5b146102515780639a46e412146102765780639ab4833e14610286578063a3158b53146102ad57600080fd5b8063439e79f71161010a578063439e79f7146101f25780635c975abb14610205578063715018a61461021c5780637eefd5ae14610224578063817b1cd21461022d5780638456cb591461023657600080fd5b806316934fc4146101475780632e17de78146101965780633a02a42d146101ab5780633c0847f5146101e25780633f4ba83a146101ea575b600080fd5b610176610155366004610be9565b60036020526000908152604090208054600182015460029092015490919083565b604080519384526020840192909252908201526060015b60405180910390f35b6101a96101a4366004610c19565b610335565b005b6101d46101b9366004610be9565b6001600160a01b031660009081526003602052604090205490565b60405190815260200161018d565b6101d4600081565b6101a9610513565b6101d4610200366004610be9565b610525565b60025460ff165b604051901515815260200161018d565b6101a9610594565b6101d460055481565b6101d460045481565b6101a96105a6565b61020c61024c366004610be9565b6105b6565b6000546001600160a01b03165b6040516001600160a01b03909116815260200161018d565b6101d4683635c9adc5dea0000081565b61025e7f000000000000000000000000000000000000000000000000000000000000000081565b6101a96102bb366004610c19565b6105fc565b6101a96102ce366004610c19565b61063f565b6102e66102e1366004610be9565b61076b565b60405160ff909116815260200161018d565b6101d469021e19e0c9bab240000081565b6101a96107da565b6101d469010f0cf064dd5920000081565b6101a9610330366004610be9565b61091d565b61033d610958565b610345610982565b3360009081526003602052604090208161039b5760405162461bcd60e51b81526020600482015260126024820152710416d6f756e74206d757374206265203e20360741b60448201526064015b60405180910390fd5b80548211156103ec5760405162461bcd60e51b815260206004820152601b60248201527f496e73756666696369656e74207374616b65642062616c616e636500000000006044820152606401610392565b600554156104555760055481600201546104069190610c48565b4210156104555760405162461bcd60e51b815260206004820152601a60248201527f436f6f6c646f776e20706572696f64206e6f74207061737365640000000000006044820152606401610392565b818160000160008282546104699190610c61565b909155505042600282015560048054839190600090610489908490610c61565b909155506104c390506001600160a01b037f00000000000000000000000000000000000000000000000000000000000000001633846109a6565b805460405133917f7fc4727e062e336010f2c282598ef5f14facb3de68cf8195c2f23e1454b2b74e916104fe91868252602082015260400190565b60405180910390a25061051060018055565b50565b61051b610a0a565b610523610a37565b565b6001600160a01b03811660009081526003602052604081205469021e19e0c9bab24000008110610558575060c892915050565b69010f0cf064dd5920000081106105725750609692915050565b683635c9adc5dea00000811061058b5750607892915050565b50606492915050565b61059c610a0a565b6105236000610a89565b6105ae610a0a565b610523610ad9565b60006005546000036105ca57506001919050565b6005546001600160a01b0383166000908152600360205260409020600201546105f39190610c48565b42101592915050565b610604610a0a565b60058190556040518181527f2cb2db544df1eec6eb85ae863778d6fae7439fc79c2d7f1ce458c59de497a56d9060200160405180910390a150565b610647610958565b61064f610982565b600081116106945760405162461bcd60e51b81526020600482015260126024820152710416d6f756e74206d757374206265203e20360741b6044820152606401610392565b6106c96001600160a01b037f000000000000000000000000000000000000000000000000000000000000000016333084610b16565b33600090815260036020526040812080548392906106e8908490610c48565b90915550503360009081526003602052604081204260019091015560048054839290610715908490610c48565b909155505033600081815260036020908152604091829020548251858152918201527f1449c6dd7851abc30abf37f57715f492010519147cc2652fbc38202c18a6ee90910160405180910390a261051060018055565b6001600160a01b03811660009081526003602052604081205469021e19e0c9bab2400000811061079e5750600392915050565b69010f0cf064dd5920000081106107b85750600292915050565b683635c9adc5dea0000081106107d15750600192915050565b50600092915050565b6107e2610a0a565b6040516370a0823160e01b81523060048201526000907f00000000000000000000000000000000000000000000000000000000000000006001600160a01b0316906370a0823190602401602060405180830381865afa158015610849573d6000803e3d6000fd5b505050506040513d601f19601f8201168201806040525081019061086d9190610c74565b90506000600454821161088157600061088e565b60045461088e9083610c61565b9050600081116108d35760405162461bcd60e51b815260206004820152601060248201526f4e6f2065786365737320746f6b656e7360801b6044820152606401610392565b6109196108e86000546001600160a01b031690565b6001600160a01b037f00000000000000000000000000000000000000000000000000000000000000001690836109a6565b5050565b610925610a0a565b6001600160a01b03811661094f57604051631e4fbdf760e01b815260006004820152602401610392565b61051081610a89565b60026001540361097b57604051633ee5aeb560e01b815260040160405180910390fd5b6002600155565b60025460ff16156105235760405163d93c066560e01b815260040160405180910390fd5b6040516001600160a01b03838116602483015260448201839052610a0591859182169063a9059cbb906064015b604051602081830303815290604052915060e01b6020820180516001600160e01b038381831617835250505050610b55565b505050565b6000546001600160a01b031633146105235760405163118cdaa760e01b8152336004820152602401610392565b610a3f610bc6565b6002805460ff191690557f5db9ee0a495bf2e6ff9c91a7834c1ba4fdd244a5e8aa4e537bd38aeae4b073aa335b6040516001600160a01b03909116815260200160405180910390a1565b600080546001600160a01b038381166001600160a01b0319831681178455604051919092169283917f8be0079c531659141344cd1fd0a4f28419497f9722a3daafe3b4186f6b6457e09190a35050565b610ae1610982565b6002805460ff191660011790557f62e78cea01bee320cd4e420270b5ea74000d11b0c9f74754ebdbfc544b05a258610a6c3390565b6040516001600160a01b038481166024830152838116604483015260648201839052610b4f9186918216906323b872dd906084016109d3565b50505050565b600080602060008451602086016000885af180610b78576040513d6000823e3d81fd5b50506000513d91508115610b90578060011415610b9d565b6001600160a01b0384163b155b15610b4f57604051635274afe760e01b81526001600160a01b0385166004820152602401610392565b60025460ff1661052357604051638dfc202b60e01b815260040160405180910390fd5b600060208284031215610bfb57600080fd5b81356001600160a01b0381168114610c1257600080fd5b9392505050565b600060208284031215610c2b57600080fd5b5035919050565b634e487b7160e01b600052601160045260246000fd5b80820180821115610c5b57610c5b610c32565b92915050565b81810381811115610c5b57610c5b610c32565b600060208284031215610c8657600080fd5b505191905056fea2646970667358221220b00cb75cb9a19f9d34ef198246b5745551397b497b126cfa2c9d1437019ed6c964736f6c63430008140033",
  "linkReferences": {},
  "deployedLinkReferences": {}
}