{
  "_format": "hh-sol-artifact-1",
  "contractName": "RewardVault",
  "sourceName": "contracts/RewardVault.sol",
  "abi": [
    {
      "inputs": [
        {
          "internalType": "address",
          "name": "_token",
          "type": "address"
        },
        {
          "internalType": "address",
          "name": "_signer",
          "type": "address"
        }
      ],
      "stateMutability": "nonpayable",
      "type": "constructor"
    },
    {
      "inputs": [],
      "name": "ECDSAInvalidSignature",
      "type": "error"
    },
    {
      "inputs": [
        {
          "internalType": "uint256",
          "name": "length",
          "type": "uint256"
        }
      ],
      "name": "ECDSAInvalidSignatureLength",
      "type": "error"
    },
    {
      "inputs": [
        {
          "internalType": "bytes32",
          "name": "s",
          "type": "bytes32"
        }
      ],
      "name": "ECDSAInvalidSignatureS",
      "type": "error"
    },
    {
      "inputs": [],
      "name": "EnforcedPause",
      "type": "error"
    },
    {
      "inputs": [],
      "name": "ExpectedPause",
      "type": "error"
    },
    {
      "inputs": [
        {
          "internalType": "address",
          "name": "owner",
          "type": "address"
        }
      ],
      "name": "OwnableInvalidOwner",
      "type": "error"
    },
    {
      "inputs": [
        {
          "internalType": "address",
          "name": "account",
          "type": "address"
        }
      ],
      "name": "OwnableUnauthorizedAccount",
      "type": "error"
    },
    {
      "inputs": [],
      "name": "ReentrancyGuardReentrantCall",
      "type": "error"
    },
    {
      "inputs": [
        {
          "internalType": "address",
          "name": "token",
          "type": "address"
        }
      ],
      "name": "SafeERC20FailedOperation",
      "type": "error"
    },
    {
      "anonymous": false,
      "inputs": [
        {
          "indexed": false,
          "internalType": "uint256",
          "name": "minAmount",
          "type": "uint256"
        },
        {
          "indexed": false,
          "internalType": "uint256",
          "name": "maxAmount",
          "type": "uint256"
        },
        {
          "indexed": false,
          "internalType": "uint256",
          "name": "cooldown",
          "type": "uint256"
        }
      ],
      "name": "ClaimLimitsUpdated",
      "type": "event"
    },
    {
      "anonymous": false,
      "inputs": [
        {
          "indexed": true,
          "internalType": "address",
          "name": "user",
          "type": "address"
        },
        {
          "indexed": false,
          "internalType": "uint256",
          "name": "amount",
          "type": "uint256"
        },
        {
          "indexed": true,
          "internalType": "bytes32",
          "name": "nonce",
          "type": "bytes32"
        },
        {
          "indexed": false,
          "internalType": "uint256",
          "name": "timestamp",
          "type": "uint256"
        }
      ],
      "name": "Claimed",
      "type": "event"
    },
    {
      "anonymous": false,
      "inputs": [
        {
          "indexed": true,
          "internalType": "address",
          "name": "to",
          "type": "address"
        },
        {
          "indexed": false,
          "internalType": "uint256",
          "name": "amount",
          "type": "uint256"
        }
      ],
      "name": "EmergencyWithdraw",
      "type": "event"
    },
    {
      "anonymous": false,
      "inputs": [
        {
          "indexed": true,
          "internalType": "address",
          "name": "previousOwner",
          "type": "address"
        },
        {
          "indexed": true,
          "internalType": "address",
          "name": "newOwner",
          "type": "address"
        }
      ],
      "name": "OwnershipTransferred",
      "type": "event"
    },
    {
      "anonymous": false,
      "inputs": [
        {
          "indexed": false,
          "internalType": "address",
          "name": "account",
          "type": "address"
        }
      ],
      "name": "Paused",
      "type": "event"
    },
    {
      "anonymous": false,
      "inputs": [
        {
          "indexed": true,
          "internalType": "address",
          "name": "oldSigner",
          "type": "address"
        },
        {
          "indexed": true,
          "internalType": "address",
          "name": "newSigner",
          "type": "address"
        }
      ],
      "name": "SignerUpdated",
      "type": "event"
    },
    {
      "anonymous": false,
      "inputs": [
        {
          "indexed": false,
          "internalType": "address",
          "name": "account",
          "type": "address"
        }
      ],
      "name": "Unpaused",
      "type": "event"
    },
    {
      "inputs": [],
      "name": "REWARD_POOL_CAP",
      "outputs": [
        {
          "internalType": "uint256",
          "name": "",
          "type": "uint256"
        }
      ],
      "stateMutability": "view",
      "type": "function"
    },
    {
      "inputs": [
        {
          "internalType": "uint256",
          "name": "amount",
          "type": "uint256"
        },
        {
          "internalType": "bytes32",
          "name": "nonce",
          "type": "bytes32"
        },
        {
          "internalType": "uint256",
          "name": "expiry",
          "type": "uint256"
        },
        {
          "internalType": "bytes",
          "name": "signature",
          "type": "bytes"
        }
      ],
      "name": "claim",
      "outputs": [],
      "stateMutability": "nonpayable",
      "type": "function"
    },
    {
      "inputs": [],
      "name": "claimCooldown",
      "outputs": [
        {
          "internalType": "uint256",
          "name": "",
          "type": "uint256"
        }
      ],
      "stateMutability": "view",
      "type": "function"
    },
    {
      "inputs": [
        {
          "internalType": "uint256",
          "name": "amount",
          "type": "uint256"
        }
      ],
      "name": "emergencyWithdraw",
      "outputs": [],
      "stateMutability": "nonpayable",
      "type": "function"
    },
    {
      "inputs": [
        {
          "internalType": "bytes32",
          "name": "nonce",
          "type": "bytes32"
        }
      ],
      "name": "isNonceUsed",
      "outputs": [
        {
          "internalType": "bool",
          "name": "",
          "type": "bool"
        }
      ],
      "stateMutability": "view",
      "type": "function"
    },
    {
      "inputs": [
        {
          "internalType": "address",
          "name": "",
          "type": "address"
        }
      ],
      "name": "lastClaimTime",
      "outputs": [
        {
          "internalType": "uint256",
          "name": "",
          "type": "uint256"
        }
      ],
      "stateMutability": "view",
      "type": "function"
    },
    {
      "inputs": [],
      "name": "maxClaimAmount",
      "outputs": [
        {
          "internalType": "uint256",
          "name": "",
          "type": "uint256"
        }
      ],
      "stateMutability": "view",
      "type": "function"
    },
    {
      "inputs": [],
      "name": "minClaimAmount",
      "outputs": [
        {
          "internalType": "uint256",
          "name": "",
          "type": "uint256"
        }
      ],
      "stateMutability": "view",
      "type": "function"
    },
    {
      "inputs": [
        {
          "internalType": "address",
          "name": "user",
          "type": "address"
        }
      ],
      "name": "nextClaimTime",
      "outputs": [
        {
          "internalType": "uint256",
          "name": "",
          "type": "uint256"
        }
      ],
      "stateMutability": "view",
      "type": "function"
    },
    {
      "inputs": [],
      "name": "owner",
      "outputs": [
        {
          "internalType": "address",
          "name": "",
          "type": "address"
        }
      ],
      "stateMutability": "view",
      "type": "function"
    },
    {
      "inputs": [],
      "name": "pause",
      "outputs": [],
      "stateMutability": "nonpayable",
      "type": "function"
    },
    {
      "inputs": [],
      "name": "paused",
      "outputs": [
        {
          "internalType": "bool",
          "name": "",
          "type": "bool"
        }
      ],
      "stateMutability": "view",
      "type": "function"
    },
    {
      "inputs": [],
      "name": "remainingRewardPool",
      "outputs": [
        {
          "internalType": "uint256",
          "name": "",
          "type": "uint256"
        }
      ],
      "stateMutability": "view",
      "type": "function"
    },
    {
      "inputs": [],
      "name": "renounceOwnership",
      "outputs": [],
      "stateMutability": "nonpayable",
      "type": "function"
    },
    {
      "inputs": [
        {
          "internalType": "uint256",
          "name": "_minAmount",
          "type": "uint256"
        },
        {
          "internalType": "uint256",
          "name": "_maxAmount",
          "type": "uint256"
        },
        {
          "internalType": "uint256",
          "name": "_cooldown",
          "type": "uint256"
        }
      ],
      "name": "setClaimLimits",
      "outputs": [],
      "stateMutability": "nonpayable",
      "type": "function"
    },
    {
      "inputs": [
        {
          "internalType": "address",
          "name": "_signer",
          "type": "address"
        }
      ],
      "name": "setSigner",
      "outputs": [],
      "stateMutability": "nonpayable",
      "type": "function"
    },
    {
      "inputs": [],
      "name": "signer",
      "outputs": [
        {
          "internalType": "address",
          "name": "",
          "type": "address"
        }
      ],
      "stateMutability": "view",
      "type": "function"
    },
    {
      "inputs": [
        {
          "internalType": "address",
          "name": "",
          "type": "address"
        }
      ],
      "name": "totalClaimed",
      "outputs": [
        {
          "internalType": "uint256",
          "name": "",
          "type": "uint256"
        }
      ],
      "stateMutability": "view",
      "type": "function"
    },
    {
      "inputs": [],
      "name": "totalDistributed",
      "outputs": [
        {
          "internalType": "uint256",
          "name": "",
          "type": "uint256"
        }
      ],
      "stateMutability": "view",
      "type": "function"
    },
    {
      "inputs": [
        {
          "internalType": "address",
          "name": "newOwner",
          "type": "address"
        }
      ],
      "name": "transferOwnership",
      "outputs": [],
      "stateMutability": "nonpayable",
      "type": "function"
    },
    {
      "inputs": [],
      "name": "unpause",
      "outputs": [],
      "stateMutability": "nonpayable",
      "type": "function"
    },
    {
      "inputs": [
        {
          "internalType": "bytes32",
          "name": "",
          "type": "bytes32"
        }
      ],
      "name": "usedNonces",
      "outputs": [
        {
          "internalType": "bool",
          "name": "",
          "type": "bool"
        }
      ],
      "stateMutability": "view",
      "type": "function"
    },
    {
      "inputs": [],
      "name": "viewToken",
      "outputs": [
        {
          "internalType": "contract IERC20",
          "name": "",
          "type": "address"
        }
      ],
      "stateMutability": "view",
      "type": "function"
    }
  ],
  "bytecode": "0x60a0604052678ac7230489e8000060075569021e19e0c9bab2400000600855620151806009553480156200003257600080fd5b506040516200131d3803806200131d8339810160408190526200005591620001da565b33806200007d57604051631e4fbdf760e01b8152600060048201526024015b60405180910390fd5b62000088816200016d565b50600180556001600160a01b038216620000e55760405162461bcd60e51b815260206004820152601560248201527f496e76616c696420746f6b656e20616464726573730000000000000000000000604482015260640162000074565b6001600160a01b0381166200013d5760405162461bcd60e51b815260206004820152601660248201527f496e76616c6964207369676e6572206164647265737300000000000000000000604482015260640162000074565b6001600160a01b03918216608052600280549190921661010002610100600160a81b031990911617905562000212565b600080546001600160a01b038381166001600160a01b0319831681178455604051919092169283917f8be0079c531659141344cd1fd0a4f28419497f9722a3daafe3b4186f6b6457e09190a35050565b80516001600160a01b0381168114620001d557600080fd5b919050565b60008060408385031215620001ee57600080fd5b620001f983620001bd565b91506200020960208401620001bd565b90509250929050565b6080516110da620002436000396000818161023a015281816106d901528181610789015261086401526110da6000f3fe608060405234801561001057600080fd5b506004361061014d5760003560e01c80639ab4833e116100c3578063ef5d9ae81161007c578063ef5d9ae8146102b9578063efca2eed146102d9578063f2fde38b146102e2578063fdea3657146102f5578063feabcefa146102fe578063feb617241461031157600080fd5b80639ab4833e14610235578063adc25bde1461025c578063aeef643914610265578063b77cf9c61461026e578063b90665e51461028e578063e7a0fb9b146102b157600080fd5b80636c19e783116101155780636c19e783146101ce578063702b82de146101e157806370f23da714610201578063715018a6146102145780638456cb591461021c5780638da5cb5b1461022457600080fd5b80631aa59e1114610152578063238ac933146101675780633f4ba83a1461019c5780635312ea8e146101a45780635c975abb146101b7575b600080fd5b610165610160366004610f3e565b610334565b005b60025461017f9061010090046001600160a01b031681565b6040516001600160a01b0390911681526020015b60405180910390f35b610165610757565b6101656101b2366004610fcb565b610769565b60025460ff165b6040519015158152602001610193565b6101656101dc366004610fe4565b6108dd565b6101f36af8277896582678ac00000081565b604051908152602001610193565b6101f361020f366004610fe4565b61098e565b6101656109d0565b6101656109e2565b6000546001600160a01b031661017f565b61017f7f000000000000000000000000000000000000000000000000000000000000000081565b6101f360075481565b6101f360085481565b6101f361027c366004610fe4565b60056020526000908152604090205481565b6101be61029c366004610fcb565b60009081526003602052604090205460ff1690565b6101f36109f2565b6101f36102c7366004610fe4565b60046020526000908152604090205481565b6101f360065481565b6101656102f0366004610fe4565b610a12565b6101f360095481565b61016561030c36600461100d565b610a50565b6101be61031f366004610fcb565b60036020526000908152604090205460ff1681565b61033c610aee565b610344610b18565b6007548510156103925760405162461bcd60e51b8152602060048201526014602482015273416d6f756e742062656c6f77206d696e696d756d60601b60448201526064015b60405180910390fd5b6008548511156103dd5760405162461bcd60e51b8152602060048201526016602482015275416d6f756e742065786365656473206d6178696d756d60501b6044820152606401610389565b824211156104215760405162461bcd60e51b815260206004820152601160248201527014da59db985d1d5c9948195e1c1a5c9959607a1b6044820152606401610389565b60008481526003602052604090205460ff16156104755760405162461bcd60e51b8152602060048201526012602482015271139bdb98d948185b1c9958591e481d5cd95960721b6044820152606401610389565b60095433600090815260056020526040902054610492919061104f565b4210156104e15760405162461bcd60e51b815260206004820152601960248201527f436c61696d20636f6f6c646f776e206e6f7420706173736564000000000000006044820152606401610389565b6af8277896582678ac000000856006546104fb919061104f565b11156105415760405162461bcd60e51b815260206004820152601560248201527414995dd85c99081c1bdbdb08195e1a185d5cdd1959605a1b6044820152606401610389565b6040516bffffffffffffffffffffffff193360601b16602082015260348101869052605481018590526074810184905246609482015260009060b40160405160208183030381529060405280519060200120905060006105ce827f19457468657265756d205369676e6564204d6573736167653a0a3332000000006000908152601c91909152603c902090565b9050600061061485858080601f0160208091040260200160405190810160405280939291908181526020018383808284376000920191909152508693925050610b3c9050565b6002549091506001600160a01b03808316610100909204161461066d5760405162461bcd60e51b8152602060048201526011602482015270496e76616c6964207369676e617475726560781b6044820152606401610389565b6000878152600360209081526040808320805460ff191660011790553383526004909152812080548a92906106a390849061104f565b9250508190555087600660008282546106bc919061104f565b9091555050336000818152600560205260409020429055610708907f00000000000000000000000000000000000000000000000000000000000000006001600160a01b0316908a610b68565b60408051898152426020820152889133917f23a14e2ee35b4d16368d22b155c6b5125d622dd4781eae9eb80c9fda30aab9e5910160405180910390a350505061075060018055565b5050505050565b61075f610bbf565b610767610bec565b565b610771610bbf565b6040516370a0823160e01b81523060048201526000907f00000000000000000000000000000000000000000000000000000000000000006001600160a01b0316906370a0823190602401602060405180830381865afa1580156107d8573d6000803e3d6000fd5b505050506040513d601f19601f820116820180604052508101906107fc9190611062565b9050808211156108455760405162461bcd60e51b8152602060048201526014602482015273496e73756666696369656e742062616c616e636560601b6044820152606401610389565b61088b61085a6000546001600160a01b031690565b6001600160a01b037f0000000000000000000000000000000000000000000000000000000000000000169084610b68565b6000546001600160a01b03166001600160a01b03167f5fafa99d0643513820be26656b45130b01e1c03062e1266bf36f88cbd3bd9695836040516108d191815260200190565b60405180910390a25050565b6108e5610bbf565b6001600160a01b0381166109345760405162461bcd60e51b8152602060048201526016602482015275496e76616c6964207369676e6572206164647265737360501b6044820152606401610389565b600280546001600160a01b03838116610100818102610100600160a81b031985161790945560405193909204169182907f2d025324f0a785e8c12d0a0d91a9caa49df4ef20ff87e0df7213a1d4f3157beb90600090a35050565b6009546001600160a01b038216600090815260056020526040812054909182916109b8919061104f565b90504281116109c757426109c9565b805b9392505050565b6109d8610bbf565b6107676000610c3e565b6109ea610bbf565b610767610c8e565b60006006546af8277896582678ac000000610a0d919061107b565b905090565b610a1a610bbf565b6001600160a01b038116610a4457604051631e4fbdf760e01b815260006004820152602401610389565b610a4d81610c3e565b50565b610a58610bbf565b81831115610a995760405162461bcd60e51b815260206004820152600e60248201526d496e76616c6964206c696d69747360901b6044820152606401610389565b60078390556008829055600981905560408051848152602081018490529081018290527fa4b5dfc5f95afcd13d971539c44d1e3464be0f2ddf835e06c1f7cd91b57351039060600160405180910390a1505050565b600260015403610b1157604051633ee5aeb560e01b815260040160405180910390fd5b6002600155565b60025460ff16156107675760405163d93c066560e01b815260040160405180910390fd5b600080600080610b4c8686610ccb565b925092509250610b5c8282610d18565b50909150505b92915050565b604080516001600160a01b038416602482015260448082018490528251808303909101815260649091019091526020810180516001600160e01b031663a9059cbb60e01b179052610bba908490610dd5565b505050565b6000546001600160a01b031633146107675760405163118cdaa760e01b8152336004820152602401610389565b610bf4610e4c565b6002805460ff191690557f5db9ee0a495bf2e6ff9c91a7834c1ba4fdd244a5e8aa4e537bd38aeae4b073aa335b6040516001600160a01b03909116815260200160405180910390a1565b600080546001600160a01b038381166001600160a01b0319831681178455604051919092169283917f8be0079c531659141344cd1fd0a4f28419497f9722a3daafe3b4186f6b6457e09190a35050565b610c96610b18565b6002805460ff191660011790557f62e78cea01bee320cd4e420270b5ea74000d11b0c9f74754ebdbfc544b05a258610c213390565b60008060008351604103610d055760208401516040850151606086015160001a610cf788828585610e6f565b955095509550505050610d11565b50508151600091506002905b9250925092565b6000826003811115610d2c57610d2c61108e565b03610d35575050565b6001826003811115610d4957610d4961108e565b03610d675760405163f645eedf60e01b815260040160405180910390fd5b6002826003811115610d7b57610d7b61108e565b03610d9c5760405163fce698f760e01b815260048101829052602401610389565b6003826003811115610db057610db061108e565b03610dd1576040516335e2f38360e21b815260048101829052602401610389565b5050565b600080602060008451602086016000885af180610df8576040513d6000823e3d81fd5b50506000513d91508115610e10578060011415610e1d565b6001600160a01b0384163b155b15610e4657604051635274afe760e01b81526001600160a01b0385166004820152602401610389565b50505050565b60025460ff1661076757604051638dfc202b60e01b815260040160405180910390fd5b600080807f7fffffffffffffffffffffffffffffff5d576e7357a4501ddfe92f46681b20a0841115610eaa5750600091506003905082610f34565b604080516000808252602082018084528a905260ff891692820192909252606081018790526080810186905260019060a0016020604051602081039080840390855afa158015610efe573d6000803e3d6000fd5b5050604051601f1901519150506001600160a01b038116610f2a57506000925060019150829050610f34565b9250600091508190505b9450945094915050565b600080600080600060808688031215610f5657600080fd5b853594506020860135935060408601359250606086013567ffffffffffffffff80821115610f8357600080fd5b818801915088601f830112610f9757600080fd5b813581811115610fa657600080fd5b896020828501011115610fb857600080fd5b9699959850939650602001949392505050565b600060208284031215610fdd57600080fd5b5035919050565b600060208284031215610ff657600080fd5b81356001600160a01b03811681146109c957600080fd5b60008060006060848603121561102257600080fd5b505081359360208301359350604090920135919050565b634e487b7160e01b600052601160045260246000fd5b80820180821115610b6257610b62611039565b60006020828403121561107457600080fd5b5051919050565b81810381811115610b6257610b62611039565b634e487b7160e01b600052602160045260246000fdfea2646970667358221220770b7497bb24a0eb69af6626f64dce35b021f694aaaac4b27dc91e6a483435a164736f6c63430008140033",
  "linkReferences": {},
  "deployedLinkReferences": {}
}