{
  "_format": "hh-sol-artifact-1",
  "contractName": "VIEWToken",
  "sourceName": "contracts/VIEWToken.sol",
  "abi": [
    {
      "inputs": [],
      "stateMutability": "nonpayable",
      "type": "constructor"
    },
    {
      "inputs": [
        {
          "internalType": "address",
          "name": "spender",
          "type": "address"
        },
        {
          "internalType": "uint256",
          "name": "allowance",
          "type": "uint256"
        },
        {
          "internalType": "uint256",
          "name": "needed",
          "type": "uint256"
        }
      ],
      "name": "ERC20InsufficientAllowance",
      "type": "error"
    },
    {
      "inputs": [
        {
          "internalType": "address",
          "name": "sender",
          "type": "address"
        },
        {
          "internalType": "uint256",
          "name": "balance",
          "type": "uint256"
        },
        {
          "internalType": "uint256",
          "name": "needed",
          "type": "uint256"
        }
      ],
      "name": "ERC20InsufficientBalance",
      "type": "error"
    },
    {
      "inputs": [
        {
          "internalType": "address",
          "name": "approver",
          "type": "address"
        }
      ],
      "name": "ERC20InvalidApprover",
      "type": "error"
    },
    {
      "inputs": [
        {
          "internalType": "address",
          "name": "receiver",
          "type": "address"
        }
      ],
      "name": "ERC20InvalidReceiver",
      "type": "error"
    },
    {
      "inputs": [
        {
          "internalType": "address",
          "name": "sender",
          "type": "address"
        }
      ],
      "name": "ERC20InvalidSender",
      "type": "error"
    },
    {
      "inputs": [
        {
          "internalType": "address",
          "name": "spender",
          "type": "address"
        }
      ],
      "name": "ERC20InvalidSpender",
      "type": "error"
    },
    {
      "inputs": [
        {
          "internalType": "address",
          "name": "owner",
          "type": "address"
        }
      ],
      "name": "OwnableInvalidOwner",
      "type": "error"
    },
    {
      "inputs": [
        {
          "internalType": "address",
          "name": "account",
          "type": "address"
        }
      ],
      "name": "OwnableUnauthorizedAccount",
      "type": "error"
    },
    {
      "anonymous": false,
      "inputs": [
        {
          "indexed": true,
          "internalType": "address",
          "name": "owner",
          "type": "address"
        },
        {
          "indexed": true,
          "internalType": "address",
          "name": "spender",
          "type": "address"
        },
        {
          "indexed": false,
          "internalType": "uint256",
          "name": "value",
          "type": "uint256"
        }
      ],
      "name": "Approval",
      "type": "event"
    },
    {
      "anonymous": false,
      "inputs": [
        {
          "indexed": true,
          "internalType": "address",
          "name": "previousOwner",
          "type": "address"
        },
        {
          "indexed": true,
          "internalType": "address",
          "name": "newOwner",
          "type": "address"
        }
      ],
      "name": "OwnershipTransferred",
      "type": "event"
    },
    {
      "anonymous": false,
      "inputs": [
        {
          "indexed": true,
          "internalType": "address",
          "name": "rewardVault",
          "type": "address"
        },
        {
          "indexed": false,
          "internalType": "uint256",
          "name": "amount",
          "type": "uint256"
        }
      ],
      "name": "RewardPoolTransferred",
      "type": "event"
    },
    {
      "anonymous": false,
      "inputs": [
        {
          "indexed": true,
          "internalType": "address",
          "name": "from",
          "type": "address"
        },
        {
          "indexed": true,
          "internalType": "address",
          "name": "to",
          "type": "address"
        },
        {
          "indexed": false,
          "internalType": "uint256",
          "name": "value",
          "type": "uint256"
        }
      ],
      "name": "Transfer",
      "type": "event"
    },
    {
      "inputs": [],
      "name": "REWARD_POOL_ALLOCATION",
      "outputs": [
        {
          "internalType": "uint256",
          "name": "",
          "type": "uint256"
        }
      ],
      "stateMutability": "view",
      "type": "function"
    },
    {
      "inputs": [],
      "name": "TOTAL_SUPPLY",
      "outputs": [
        {
          "internalType": "uint256",
          "name": "",
          "type": "uint256"
        }
      ],
      "stateMutability": "view",
      "type": "function"
    },
    {
      "inputs": [
        {
          "internalType": "address",
          "name": "owner",
          "type": "address"
        },
        {
          "internalType": "address",
          "name": "spender",
          "type": "address"
        }
      ],
      "name": "allowance",
      "outputs": [
        {
          "internalType": "uint256",
          "name": "",
          "type": "uint256"
        }
      ],
      "stateMutability": "view",
      "type": "function"
    },
    {
      "inputs": [
        {
          "internalType": "address",
          "name": "spender",
          "type": "address"
        },
        {
          "internalType": "uint256",
          "name": "value",
          "type": "uint256"
        }
      ],
      "name": "approve",
      "outputs": [
        {
          "internalType": "bool",
          "name": "",
          "type": "bool"
        }
      ],
      "stateMutability": "nonpayable",
      "type": "function"
    },
    {
      "inputs": [
        {
          "internalType": "address",
          "name": "account",
          "type": "address"
        }
      ],
      "name": "balanceOf",
      "outputs": [
        {
          "internalType": "uint256",
          "name": "",
          "type": "uint256"
        }
      ],
      "stateMutability": "view",
      "type": "function"
    },
    {
      "inputs": [
        {
          "internalType": "uint256",
          "name": "value",
          "type": "uint256"
        }
      ],
      "name": "burn",
      "outputs": [],
      "stateMutability": "nonpayable",
      "type": "function"
    },
    {
      "inputs": [
        {
          "internalType": "address",
          "name": "account",
          "type": "address"
        },
        {
          "internalType": "uint256",
          "name": "value",
          "type": "uint256"
        }
      ],
      "name": "burnFrom",
      "outputs": [],
      "stateMutability": "nonpayable",
      "type": "function"
    },
    {
      "inputs": [],
      "name": "decimals",
      "outputs": [
        {
          "internalType": "uint8",
          "name": "",
          "type": "uint8"
        }
      ],
      "stateMutability": "view",
      "type": "function"
    },
    {
      "inputs": [],
      "name": "name",
      "outputs": [
        {
          "internalType": "string",
          "name": "",
          "type": "string"
        }
      ],
      "stateMutability": "view",
      "type": "function"
    },
    {
      "inputs": [],
      "name": "owner",
      "outputs": [
        {
          "internalType": "address",
          "name": "",
          "type": "address"
        }
      ],
      "stateMutability": "view",
      "type": "function"
    },
    {
      "inputs": [],
      "name": "renounceOwnership",
      "outputs": [],
      "stateMutability": "nonpayable",
      "type": "function"
    },
    {
      "inputs": [],
      "name": "rewardPoolTransferred",
      "outputs": [
        {
          "internalType": "bool",
          "name": "",
          "type": "bool"
        }
      ],
      "stateMutability": "view",
      "type": "function"
    },
    {
      "inputs": [],
      "name": "symbol",
      "outputs": [
        {
          "internalType": "string",
          "name": "",
          "type": "string"
        }
      ],
      "stateMutability": "view",
      "type": "function"
    },
    {
      "inputs": [],
      "name": "totalSupply",
      "outputs": [
        {
          "internalType": "uint256",
          "name": "",
          "type": "uint256"
        }
      ],
      "stateMutability": "view",
      "type": "function"
    },
    {
      "inputs": [
        {
          "internalType": "address",
          "name": "to",
          "type": "address"
        },
        {
          "internalType": "uint256",
          "name": "value",
          "type": "uint256"
        }
      ],
      "name": "transfer",
      "outputs": [
        {
          "internalType": "bool",
          "name": "",
          "type": "bool"
        }
      ],
      "stateMutability": "nonpayable",
      "type": "function"
    },
    {
      "inputs": [
        {
          "internalType": "address",
          "name": "from",
          "type": "address"
        },
        {
          "internalType": "address",
          "name": "to",
          "type": "address"
        },
        {
          "internalType": "uint256",
          "name": "value",
          "type": "uint256"
        }
      ],
      "name": "transferFrom",
      "outputs": [
        {
          "internalType": "bool",
          "name": "",
          "type": "bool"
        }
      ],
      "stateMutability": "nonpayable",
      "type": "function"
    },
    {
      "inputs": [
        {
          "internalType": "address",
          "name": "newOwner",
          "type": "address"
        }
      ],
      "name": "transferOwnership",
      "outputs": [],
      "stateMutability": "nonpayable",
      "type": "function"
    },
    {
      "inputs": [
        {
          "internalType": "address",
          "name": "rewardVault",
          "type": "address"
        }
      ],
      "name": "transferRewardPool",
      "outputs": [],
      "stateMutability": "nonpayable",
      "type": "function"
    }
  ],
  "bytecode": "0x60806040523480156200001157600080fd5b50336040518060400160405280600a8152602001692b24a2ab902a37b5b2b760b11b815250604051806040016040528060048152602001635649455760e01b815250816003908162000064919062000338565b50600462000073828262000338565b5050506001600160a01b038116620000a657604051631e4fbdf760e01b8152600060048201526024015b60405180910390fd5b620000b181620000d0565b50620000ca336b033b2e3c9fd0803ce800000062000122565b6200042c565b600580546001600160a01b038381166001600160a01b0319831681179093556040519116919082907f8be0079c531659141344cd1fd0a4f28419497f9722a3daafe3b4186f6b6457e090600090a35050565b6001600160a01b0382166200014e5760405163ec442f0560e01b8152600060048201526024016200009d565b6200015c6000838362000160565b5050565b6001600160a01b0383166200018f57806002600082825462000183919062000404565b90915550620002039050565b6001600160a01b03831660009081526020819052604090205481811015620001e45760405163391434e360e21b81526001600160a01b038516600482015260248101829052604481018390526064016200009d565b6001600160a01b03841660009081526020819052604090209082900390555b6001600160a01b038216620002215760028054829003905562000240565b6001600160a01b03821660009081526020819052604090208054820190555b816001600160a01b0316836001600160a01b03167fddf252ad1be2c89b69c2b068fc378daa952ba7f163c4a11628f55a4df523b3ef836040516200028691815260200190565b60405180910390a3505050565b634e487b7160e01b600052604160045260246000fd5b600181811c90821680620002be57607f821691505b602082108103620002df57634e487b7160e01b600052602260045260246000fd5b50919050565b601f8211156200033357600081815260208120601f850160051c810160208610156200030e5750805b601f850160051c820191505b818110156200032f578281556001016200031a565b5050505b505050565b81516001600160401b0381111562000354576200035462000293565b6200036c81620003658454620002a9565b84620002e5565b602080601f831160018114620003a457600084156200038b5750858301515b600019600386901b1c1916600185901b1785556200032f565b600085815260208120601f198616915b82811015620003d557888601518255948401946001909101908401620003b4565b5085821015620003f45787850151600019600388901b60f8161c191681555b5050505050600190811b01905550565b808201808211156200042657634e487b7160e01b600052601160045260246000fd5b92915050565b610abb806200043c6000396000f3fe608060405234801561001057600080fd5b50600436106101165760003560e01c806379cc6790116100a2578063a9059cbb11610071578063a9059cbb14610233578063d43947d414610246578063dd62ed3e14610259578063f06f4d3814610292578063f2fde38b146102a457600080fd5b806379cc6790146101ea5780638da5cb5b146101fd578063902d55a51461021857806395d89b411461022b57600080fd5b806323b872dd116100e957806323b872dd14610182578063313ce5671461019557806342966c68146101a457806370a08231146101b9578063715018a6146101e257600080fd5b806306fdde031461011b578063095ea7b31461013957806318160ddd1461015c5780631eb8d1761461016e575b600080fd5b6101236102b7565b60405161013091906108ec565b60405180910390f35b61014c610147366004610956565b610349565b6040519015158152602001610130565b6002545b604051908152602001610130565b60055461014c90600160a01b900460ff1681565b61014c610190366004610980565b610363565b60405160128152602001610130565b6101b76101b23660046109bc565b610387565b005b6101606101c73660046109d5565b6001600160a01b031660009081526020819052604090205490565b6101b7610394565b6101b76101f8366004610956565b6103a8565b6005546040516001600160a01b039091168152602001610130565b6101606b033b2e3c9fd0803ce800000081565b6101236103c1565b61014c610241366004610956565b6103d0565b6101b76102543660046109d5565b6103de565b6101606102673660046109f7565b6001600160a01b03918216600090815260016020908152604080832093909416825291909152205490565b6101606af8277896582678ac00000081565b6101b76102b23660046109d5565b61050d565b6060600380546102c690610a2a565b80601f01602080910402602001604051908101604052809291908181526020018280546102f290610a2a565b801561033f5780601f106103145761010080835404028352916020019161033f565b820191906000526020600020905b81548152906001019060200180831161032257829003601f168201915b5050505050905090565b600033610357818585610548565b60019150505b92915050565b60003361037185828561055a565b61037c8585856105d9565b506001949350505050565b6103913382610638565b50565b61039c61066e565b6103a6600061069b565b565b6103b382338361055a565b6103bd8282610638565b5050565b6060600480546102c690610a2a565b6000336103578185856105d9565b6103e661066e565b600554600160a01b900460ff16156104455760405162461bcd60e51b815260206004820152601f60248201527f52657761726420706f6f6c20616c7265616479207472616e736665727265640060448201526064015b60405180910390fd5b6001600160a01b0381166104935760405162461bcd60e51b8152602060048201526015602482015274496e76616c6964207661756c74206164647265737360581b604482015260640161043c565b6005805460ff60a01b1916600160a01b1790556104bc33826af8277896582678ac0000006105d9565b806001600160a01b03167f037f55690202d26d337e04d4fa108a2c9786f695f4be4fc3c370902065b7bf8f6af8277896582678ac00000060405161050291815260200190565b60405180910390a250565b61051561066e565b6001600160a01b03811661053f57604051631e4fbdf760e01b81526000600482015260240161043c565b6103918161069b565b61055583838360016106ed565b505050565b6001600160a01b038381166000908152600160209081526040808320938616835292905220546000198110156105d357818110156105c457604051637dc7a0d960e11b81526001600160a01b0384166004820152602481018290526044810183905260640161043c565b6105d3848484840360006106ed565b50505050565b6001600160a01b03831661060357604051634b637e8f60e11b81526000600482015260240161043c565b6001600160a01b03821661062d5760405163ec442f0560e01b81526000600482015260240161043c565b6105558383836107c2565b6001600160a01b03821661066257604051634b637e8f60e11b81526000600482015260240161043c565b6103bd826000836107c2565b6005546001600160a01b031633146103a65760405163118cdaa760e01b815233600482015260240161043c565b600580546001600160a01b038381166001600160a01b0319831681179093556040519116919082907f8be0079c531659141344cd1fd0a4f28419497f9722a3daafe3b4186f6b6457e090600090a35050565b6001600160a01b0384166107175760405163e602df0560e01b81526000600482015260240161043c565b6001600160a01b03831661074157604051634a1406b160e11b81526000600482015260240161043c565b6001600160a01b03808516600090815260016020908152604080832093871683529290522082905580156105d357826001600160a01b0316846001600160a01b03167f8c5be1e5ebec7d5bd14f71427d1e84f3dd0314c0f7b2291e5b200ac8c7c3b925846040516107b491815260200190565b60405180910390a350505050565b6001600160a01b0383166107ed5780600260008282546107e29190610a64565b9091555061085f9050565b6001600160a01b038316600090815260208190526040902054818110156108405760405163391434e360e21b81526001600160a01b0385166004820152602481018290526044810183905260640161043c565b6001600160a01b03841660009081526020819052604090209082900390555b6001600160a01b03821661087b5760028054829003905561089a565b6001600160a01b03821660009081526020819052604090208054820190555b816001600160a01b0316836001600160a01b03167fddf252ad1be2c89b69c2b068fc378daa952ba7f163c4a11628f55a4df523b3ef836040516108df91815260200190565b60405180910390a3505050565b600060208083528351808285015260005b81811015610919578581018301518582016040015282016108fd565b506000604082860101526040601f19601f8301168501019250505092915050565b80356001600160a01b038116811461095157600080fd5b919050565b6000806040838503121561096957600080fd5b6109728361093a565b946020939093013593505050565b60008060006060848603121561099557600080fd5b61099e8461093a565b92506109ac6020850161093a565b9150604084013590509250925092565b6000602082840312156109ce57600080fd5b5035919050565b6000602082840312156109e757600080fd5b6109f08261093a565b9392505050565b60008060408385031215610a0a57600080fd5b610a138361093a565b9150610a216020840161093a565b90509250929050565b600181811c90821680610a3e57607f821691505b602082108103610a5e57634e487b7160e01b600052602260045260246000fd5b50919050565b8082018082111561035d57634e487b7160e01b600052601160045260246000fdfea26469706673582212206157cf90be38c10277128ff22146ace654c79a452d807e9d65d8838e0e15caa564736f6c63430008140033",
  "linkReferences": {},
  "deployedLinkReferences": {}
}